:020000040800F2
:10000000B83B0020CD010008010B0008A308000840
:100010004D0A0008F50400087F1C000800000000DD
:100020000000000000000000000000007F14000835
:100030002107000800000000431200089115000885
:10004000E7010008E7010008E7010008E7010008F0
:10005000E7010008E7010008E7010008E7010008E0
:10006000E7010008E7010008E7010008E7010008D0
:10007000E7010008E7010008E7010008E7010008C0
:10008000E7010008E7010008E7010008E7010008B0
:10009000E7010008E7010008E7010008E7010008A0
:1000A000E7010008E7010008E7010008E701000890
:1000B000E7010008E7010008E7010008E701000880
:1000C000E7010008E7010008E7010008E701000870
:1000D000E7010008951A0008E70100086D1B0008F9
:1000E000E7010008E7010008E7010008E701000850
:1000F000E7010008E7010008E7010008E701000840
:10010000E7010008E7010008E7010008E70100082F
:10011000E7010008E7010008E7010008E70100081F
:10012000E7010008E7010008E7010008E70100080F
:1001300000F002F800F03AF80AA090E8000C8244BF
:100140008344AAF10107DA4501D100F02FF8AFF29C
:10015000090EBAE80F0013F0010F18BFFB1A43F0A5
:10016000010318478C4D0000AC4D0000103A24BF2D
:1001700078C878C1FAD8520724BF30C830C144BF0C
:1001800004680C607047000000230024002500264E
:10019000103A28BF78C1FBD8520728BF30C148BFEA
:1001A0000B6070471FB51FBD10B510BD00F031F8D2
:1001B0001146FFF7F7FF02F03DF800F04FF803B4E7
:1001C000FFF7F2FF03BC00F053F800000948804736
:1001D00009480047FEE7FEE7FEE7FEE7FEE7FEE729
:1001E000FEE7FEE7FEE7FEE704480549054A064B41
:1001F000704700009515000831010008B83500204F
:10020000B83B0020B8370020B8370020704770474F
:100210007047754600F028F8AE460500694653461B
:1002200020F00700854618B020B5FFF7DDFFBDE8D8
:1002300020404FF000064FF000074FF000084FF04D
:10024000000B21F00701AC46ACE8C009ACE8C009DE
:10025000ACE8C009ACE8C0098D4670470446AFF36E
:1002600000802046FFF7ABFF004870475435002060
:1002700001491820ABBEFEE726000200704721B1FD
:10028000826842F00102826003E0826822F001028B
:100290008260704710B504461248844208D101219B
:1002A000401500F0FFFF0021601500F0FBFF17E094
:1002B0000D48844208D10121001500F0F3FF002110
:1002C000201500F0EFFF0BE00848844208D101211F
:1002D000C80300F0E7FF00214FF4004000F0E2FF08
:1002E00010BD00000024014000280140003C0140F6
:1002F000014600208A6802F004020AB1012000E0F1
:10030000002070470146C86C80B27047024600204A
:1003100013680B400BB1012000E00020704701463C
:1003200000208A6802F008020AB1012000E00020E3
:100330007047000030B502460020002350680F4C83
:1003400020400D790C6844EA0524204350609068F1
:100350000B4C2040D1E902542C434D7944EA45042A
:1003600020439060D06A20F470000C7C641EE4B2DC
:10037000234340EA0350D06230BD0000FFFEF0FF8F
:10038000FDF7F1FFF0B504460D4600200021092DD0
:1003900011DDE068A5F10A0606EB4607072606FA16
:1003A00007F18843A5F10A0606EB460603FA06F1B3
:1003B0000843E0600CE0206905EB4507072606FAD4
:1003C00007F1884305EB450603FA06F1084320616F
:1003D000072A0FDA606B561E06EB86071F2606FA01
:1003E00007F18843561E06EB860605FA06F1084318
:1003F000606322E00D2A0FDA206BD61F06EB86071A
:100400001F2606FA07F18843D61F06EB860605FA73
:1004100006F10843206310E0E06AA2F10D0606EB46
:1004200086071F2606FA07F18843A2F10D0606EBA0
:10043000860605FA06F10843E062F0BD816841F0E6
:1004400008018160704721B1826842F4A002826095
:1004500003E0826822F4A00282607047816841F064
:10046000040181607047000000B587B001210420BD
:1004700000F008FF0121480200F004FF1E20ADF843
:10048000180000208DF81B0006A9184800F049F953
:100490001748FFF7FFFE002001908DF808000120AB
:1004A0008DF809004FF4602003900020049005208F
:1004B0008DF8140001A90E48FFF73CFF01210C48FC
:1004C000FFF7DDFE0A48FFF7B9FF00BF0848FFF756
:1004D00026FF0028FAD10648FFF7C0FF00BF0448F6
:1004E000FFF706FF0028FAD107B000BD0008014061
:1004F0000024014000BFFEE701684FF6FE72114084
:1005000001600021016041608160C1604B49884207
:1005100008D14A490839496841F00F01474A083A69
:1005200051608AE045491431884208D1434908396D
:10053000496841F0F001414A083A51607DE03F4985
:100540002831884208D13D490839496841F4706131
:100550003A4A083A516070E038493C31884208D143
:1005600036490839496841F47041344A083A5160C3
:1005700063E032495031884208D13049083949682E
:1005800041F470212D4A083A516056E02B496431FC
:10059000884208D129490839496841F47001274A3D
:1005A000083A516049E025497831884208D1234909
:1005B0000839496841F07061204A083A51603CE0CE
:1005C0001F49884206D1011F096841F00F01021F2F
:1005D000116032E01A491431884208D11849091FC4
:1005E000096841F0F001164A121F116025E0144914
:1005F0002831884208D11249091F096841F4706105
:100600000F4A121F116018E00D493C31884208D191
:100610000B49091F096841F47041094A121F116012
:100620000BE007495031884207D10549091F096885
:1006300041F47021024A121F116070470800024005
:100640000804024010B50022026847F6F0739A438E
:100650000C6A8B6823430C6923434C6923438C69E0
:100660002343CC6923434C6A23438C6A23431A43B4
:100670000260CB6843600B6883604B68C36010BD49
:1006800000B58BB00121084600F0DCFD2248FFF7E1
:1006900033FF22480090002002904FF40070039036
:1006A000002004908020059000200690079008907C
:1006B0004FF40050099000200A9069461648FFF751
:1006C000C1FF15481430FFF717FF144800901020A1
:1006D00002904001039000200490802005900020AB
:1006E0000690079008904FF40050099000200A905F
:1006F000694609481430FFF7A5FF01221146074853
:100700000C3800F07BFE0122022104480C3800F076
:1007100075FE00200BB000BD440002400C380040C4
:1007200070472DE9F04102460025002600200023F5
:100730000024002791F803C00CF00F0591F803C0C6
:100740000CF0100CBCF1000F03D091F802C04CEA81
:10075000050591F800C0BCF1000F31D014680020ED
:100760002BE04FF0010C0CFA00F3B1F800C00CEADA
:1007700003069E4220D183004FF00F0C0CFA03F7C2
:10078000BC4305FA03FC4CEA040491F803C0BCF135
:10079000280F06D14FF0010C0CFA00FCC2F814C06F
:1007A0000AE091F803C0BCF1480F05D14FF0010CED
:1007B0000CFA00FCC2F810C0401C0828D1D3146009
:1007C000B1F800C0BCF1FF0F34DD546800202EE00A
:1007D00000F1080C4FF0010808FA0CF3B1F800C062
:1007E0000CEA03069E4221D183004FF00F0C0CFA55
:1007F00003F7BC4305FA03FC4CEA040491F803C078
:10080000BCF1280F05D100F1080C08FA0CF8C2F869
:10081000148091F803C0BCF1480F07D100F1080C17
:100820004FF0010808FA0CF8C2F81080401C0828A4
:10083000CED35460BDE8F0814161704701617047DB
:1008400010B504460723012221460948FFF79AFD07
:1008500001210748FFF7F7FD00BF02210448FFF719
:1008600055FD0028F9D00248FFF74CFD10BD0000EF
:10087000002401402DE9F04107460C4600250026E2
:1008800008E03846FFF7DCFF0544052001F0D6FB01
:10089000701CC6B2A642F4DBB5FBF4F080B2BDE832
:1008A000F08100BFFEE7000008B50121082000F03C
:1008B000E9FCC020ADF8000010208DF803000320F3
:1008C0008DF8020069460448FFF72BFFC02102485B
:1008D000FFF7B4FF08BD0000000C014070B50446EE
:1008E0001848006820F07040164908600846006803
:1008F00040F04050086000201349086000251EE0C9
:10090000E00920B101201049091D086003E0002022
:100910000D49091D08606006040E022001F0F2FB7B
:10092000012009490860022001F0ECFB0020074982
:10093000C1F89801022001F0E5FB681CC5B2082D42
:10094000DEDB70BD000C0140988121420080214215
:1009500010B50F48006820F070400D490860084647
:10096000006840F04050086001200A4908600A49C8
:10097000C1F89801042001F0C5FB0020054908607A
:10098000042001F0BFFB00200349C1F8980110BD0D
:10099000000C01409C8121420080214210B50F488B
:1009A000006820F070400D4908600846006840F07B
:1009B0004050086000200A4908600A49C1F89C01BB
:1009C000042001F09FFB0120054908600549C1F89A
:1009D0009C01042001F096FB10BD0000000C0140BA
:1009E000988121420080214210B5002414480068FB
:1009F00020F07040124908600846006840F000404E
:100A0000086001200F49086001F07CFB01200E49BD
:100A1000C1F8980101F076FB07E0601CC4B2FA2C23
:100A200003DDFFF7BBFF012010BD064880380068DA
:100A30000028F2D10349091F086000BFF4E7000055
:100A4000000C01409C8121420080214200BFFEE752
:100A50002DE9F84380460F4614461D46089E274858
:100A6000A8EB0000022202EB9021104601F0F7FDF6
:100A70008146012100F006FCADF80070012C02D186
:100A800000208DF8030024B9062D02D104208DF832
:100A9000030024B9082D02D128208DF8030024B9C1
:100AA000072D02D148208DF80300022C02D114201A
:100AB0008DF80300042C02D110208DF80300032CC4
:100AC00002D11C208DF80300052C02D118208DF8CE
:100AD0000300092E02D102208DF802000B2E02D154
:100AE00001208DF802000C2E02D103208DF80200A7
:100AF00069464046FFF715FEBDE8F883000801404F
:100B0000704700001CB511A103C9CDE900011020F8
:100B100000F054FC05226946302000F06FF90522F0
:100B20006946102000F0C0F8002406E01DF804001B
:100B3000A52800D003E0601CC4B2052CF6DB00BF82
:100B4000052C01D001201CBD0020FCE7A5A5A5A512
:100B5000A5000000002000BF04E00021034A11545A
:100B6000411CC8B22028F8DB704700003C0400207C
:100B700000B587B00C2006230422032100902548ED
:100B8000FFF766FF03212348FFF756FE0C200823DA
:100B90000022D90100901F48FFF75AFF4FF48061EF
:100BA0001C48FFF749FE00F08DFB00211A4800F0B9
:100BB00019FC0020ADF808004FF48270ADF80A006F
:100BC0000020ADF80C00ADF80E00ADF810004FF4A9
:100BD0000070ADF812001820ADF814000020ADF838
:100BE00016000720ADF8180002A90B4800F01DFC04
:100BF0000121094800F0F6FB102000F0DFFB002087
:100C00000649086001200649C1F88401FFF7A2FFE8
:100C100007B000BD000C0140003800408081214237
:100C20000080214210B5FFF7A3FF00200C490860A7
:100C3000102000F0C3FB0121212000F0FDF801216C
:100C4000222000F0F9F83721252000F0F5F80F21D7
:100C5000262000F0F1F801200249C1F8800110BD02
:100C6000808121420080214210B5102000F0A6FBB7
:100C700000200A490860052209492A2000F0BEF830
:100C80002021312000F0D8F80F21202000F0D4F8E6
:100C900001200449C1F8800110BD0000808121427B
:100CA00035000020008021422DE9F04107460D4625
:100CB000164600200A490860384600F055FB804679
:100CC000002405E0002000F04FFB2855601CC4B252
:100CD000B442F7DB0120024908604046BDE8F081DC
:100CE0008481214270B504460020074908602046EF
:100CF00000F03AFB002000F037FB054601200349D5
:100D0000C1F88401284670BD8481214200802142BF
:100D100070B50446102000F051FB0720FFF7E2FFFA
:100D200005462946272000F087F805F0400050B11D
:100D3000202221466120FFF7B7FFFF21E22000F0CB
:100D40007BF8402070BDFF20FCE7000010B51020AC
:100D500000F034FB00200C49086005220B493020CC
:100D600000F04CF8052209492A2000F047F81A2122
:100D7000242000F061F80E21202000F05DF8012011
:100D80000349C1F8800110BD80812142300000205C
:100D90000080214270B50546FF26102000F00EFBB2
:100DA00000201449086020222946A02000F026F8DF
:100DB00001201149C1F8800100BF0E485838006871
:100DC0000028FAD10720FFF78DFF0446214627208F
:100DD00000F032F804F0100028B1FF21E12000F00B
:100DE0002BF8102070BD04F0200008B12020F9E796
:100DF0003046F7E780812142008021422DE9F04111
:100E000007460C46154600200A490860384600F09F
:100E1000ABFA8046002605E014F8010B00F0A4FAB6
:100E2000701CC6B2AE42F7DB0120024908604046A2
:100E3000BDE8F0818481214270B505460C46002052
:100E400007490860284600F08FFA0646204600F061
:100E50008BFA01200349C1F88401304670BD0000BF
:100E6000848121420080214270B500240CE00025DD
:100E700006E00020074901EBC5010855681CC5B212
:100E8000802DF6DB601CC4B2082CF0DB00F0A8F863
:100E900070BD0000D4060020F0B5144600267F285F
:100EA00001DC3F2900DDF0BD0B46CF1701EB577782
:100EB000FF10C7F10707FAB2CF1701EB5777FF1002
:100EC000A1EBC707FDB2C5F107070123BB40DEB2A6
:100ED0004CB10A4B03EBC0039B5C3343074F07EB5A
:100EE000C007BB5408E0054B03EBC0039B5CB34356
:100EF000024F07EBC007BB5400BFD4E7D406002065
:100F000010B5FFF7D1FC0021AE2000F08EF90021D2
:100F1000084600F08AF90021102000F086F900212F
:100F2000402000F082F90021B02000F07EF900217D
:100F3000812000F07AF90021FF2000F076F90021ED
:100F4000A12000F072F90021A62000F06EF9002126
:100F5000A82000F06AF900213F2000F066F9002186
:100F6000C82000F062F90021D32000F05EF90021D2
:100F7000084600F05AF90021D52000F056F900216A
:100F8000802000F052F90021D82000F04EF9002115
:100F9000052000F04AF90021D92000F046F900218F
:100FA000F12000F042F90021DA2000F03EF90021A2
:100FB000122000F03AF90021DB2000F036F9002180
:100FC000302000F032F900218D2000F02EF90021B0
:100FD000142000F02AF90021AF2000F026F910BDFE
:100FE00070B500241CE004F1B001C8B2002100F08B
:100FF0001CF90021084600F018F90021102000F02B
:1010000014F9002508E0084901EBC501085D01213C
:1010100000F00BF9681CC5B2802DF4DB601CC4B273
:10102000082CE0DB70BD0000D40600202DE9F84F4D
:1010300080460F4616461C46BA462046E31704EB88
:101040005373DB1021464FEAE47C04EB5C7C4FEAEF
:10105000EC0CA4EBCC0CBCF1000F02D04FF0010C57
:1010600001E04FF0000C6344224604EBD27C4FEACF
:101070006C0C03FB0CF303F0FF0BA6F12000C6B2CF
:1010800000254EE00C2C07D106EB4600274901EB6A
:101090008000405D009013E0102C05D1244800EB47
:1010A0000610405D00900BE0182C07D106EBC6003F
:1010B000204901EB8000405D009001E0BDE8F88F21
:1010C0004FF0000927E0009800F0800028B1394671
:1010D00040460A9AFFF7E0FE09E00A9808B90120A5
:1010E00000E00020024639464046FFF7D5FE009852
:1010F0004006000E0090781CC7B2A7EB0A00A04281
:1011000005D1574608F1010000F0FF0806E009F19B
:10111000010000F0FF09B9F1080FD4DB00BF681C23
:10112000C5B25D45AEDB00BFC8E70000182F000860
:101130008C3300087C3900082DE9FF4F81B0074649
:1011400091461E460E9D4FF0000A002439E0301BE8
:10115000401EC1B20A2001F077FAB9FBF0F00A2173
:10116000B0FBF1F201FB1208BAF1000F16D1701EAC
:10117000A04213DDB8F1000F0ED10120AB4605EB04
:10118000DB71491001FB04710090C8B22B4620228C
:101190000299FFF74BFF12E04FF0010A0120AB4626
:1011A00005EBDB71491001FB04710090C8B208F136
:1011B0003001CAB22B460299FFF738FF00BF601C0E
:1011C000C4B2B442C3DB05B0BDE8F08FF8B5064643
:1011D0000F4615461C4621E004EBD4714910C1F1BD
:1011E0008001B14202DA00263819C7B2C4F14000CA
:1011F000B84204DA002006460746FFF735FE012014
:1012000000902A78234639463046FFF70FFF2046E4
:1012100004EBD07106EB6101CEB26D1C28787E28FC
:1012200002DC28782028D7DAF8BD70B504460D46D0
:101230001DB1E0B200F03BFD02E0E0B200F021FDA4
:1012400070BD704729B1064A52690243044B5A6186
:1012500004E0034A52698243014B5A61704700001F
:101260000010024029B1064AD2690243044BDA61F8
:1012700004E0034AD2698243014BDA6170470000FF
:101280000010024029B1064A92690243044B9A6158
:1012900004E0034A92698243014B9A61704700005F
:1012A0000010024029B1064AD2680243044BDA60BA
:1012B00004E0034AD2688243014BDA6070470000C1
:1012C0000010024000B587B001210820FFF7DAFFC7
:1012D00001218803FFF7C6FF4FF46040ADF8180006
:1012E00018208DF81B0003208DF81A0006A91C4851
:1012F000FFF717FA4FF460411948FFF79FFA01A86A
:1013000000F0B1F80020ADF804004FF48270ADF8A1
:1013100006000020ADF808000220ADF80A00012008
:10132000ADF80C004002ADF80E003820ADF810000A
:101330000020ADF812000720ADF8140001A90948FB
:1013400000F073F80121074800F04CF8FF2000F08E
:101350000BF8082000F032F8FFF792F907B000BD53
:10136000000C01400038004070B50546002405E03F
:10137000601CC4B2C82C01DD002070BD02210E48E3
:1013800000F045F80028F3D029460B4800F04BF850
:10139000002405E0601CC4B2C82C01DD0020ECE78D
:1013A0000121054800F033F80028F3D0024800F08E
:1013B00037F8C0B2E1E700000038004010B504463D
:1013C000074800884FF6C77108400549088008465D
:1013D0000088204308800121014800F003F810BD77
:1013E0000038004021B1028842F04002028004E04F
:1013F00002884FF6BF731A40028070471AB1838883
:101400000B43838002E083888B43838070470246CE
:10141000002013890B400BB1012000E00020704731
:101420000146888970478181704710B50022028883
:1014300002F441520B884C8823438C882343CC8888
:1014400023430C8923434C8923438C892343CC8930
:1014500023431A430280838B4FF2FF74234083831C
:101460000B8A038210BD0021018041808180C180F0
:10147000018141818181C1810721018270477047CB
:1014800010B500F001F810BD0CB5002001900090DF
:101490003348006840F480303149086000BF30486C
:1014A000006800F4003000900198401C0190009802
:1014B00018B90198B0F5A06FF1D12948006800F47F
:1014C000003010B10120009001E000200090009851
:1014D000012843D12348006840F0100021490860EA
:1014E0000846006820F0030008600846006840F0E5
:1014F000020008601A484068194948600846406878
:1015000048600846406840F480604860084640688B
:1015100020F47C1048600846406840F4E8104860B9
:101520000846006840F08070086000BF0C48006802
:1015300000F000700028F9D00948406820F003004E
:10154000074948600846406840F00200486000BF14
:101550000348406800F00C000828F9D10CBD0000D9
:101560000010024000200240042808D14FF0E02182
:10157000096941F004014FF0E022116107E04FF0EA
:10158000E021096921F004014FF0E0221161704768
:101590007047000010B51348006840F00100114981
:1015A000086008464068104908400E4948600846EF
:1015B00000680E4908400B4908600846006820F49E
:1015C000802008600846406820F4FE0048604FF420
:1015D0001F008860FFF754FF4FF000600449086067
:1015E00010BD0000001002400000FFF8FFFFF6FEF3
:1015F00008ED00E030B589B005460C460121C8026F
:10160000FFF740FE01210420FFF73CFE4FF48070FD
:10161000ADF8200018208DF8230003208DF822005B
:1016200008A91848FFF77DF8ADF81850ADF8144038
:101630000020ADF81A00ADF8160005A9124800F018
:10164000D7F97020ADF804000120ADF806000020A5
:10165000ADF80A00ADF80C0001A90B4800F022F922
:101660000121094800F00EF90821074800F066F949
:101670000121054800F0EEF80121034800F0F6F8DA
:1016800009B030BD00080140002C014030B589B0E0
:1016900005460C4601210846FFF7E4FD0121042020
:1016A000FFF7F0FD0120ADF8200018208DF8230091
:1016B00003208DF8220008A91948FFF732F8ADF889
:1016C0001850ADF814400020ADF81A00ADF816001F
:1016D00005A94FF0804000F08BF97020ADF80400B0
:1016E0000120ADF806000020ADF80A00ADF80C00AE
:1016F00001A94FF0804000F0D5F80121880700F0E3
:10170000C1F80821C80600F019F90121880700F086
:10171000A1F80121880700F0A9F809B030BD000048
:101720000008014030B589B005460C460121022071
:10173000FFF798FD01210420FFF7A4FD4020ADF83C
:10174000200018208DF8230003208DF8220008A91E
:101750001848FEF7E6FFADF81850ADF81440002029
:10176000ADF81A00ADF8160005A9134800F040F9CD
:101770007020ADF804000120ADF806000020ADF89F
:101780000A00ADF80C0001A90B4800F08BF801210C
:10179000094800F077F80821074800F0CFF8012148
:1017A000054800F057F80121034800F05FF809B040
:1017B00030BD0000000801400004004030B589B091
:1017C00005460C4601210420FFF74CFD01210820AD
:1017D000FFF758FD4FF40070ADF8200018208DF889
:1017E000230003208DF8220008A91848FEF799FF6E
:1017F000ADF81850ADF814400020ADF81A00ADF85F
:10180000160005A9124800F0F3F87020ADF80400A6
:101810000120ADF806000020ADF80A00ADF80C007C
:1018200001A90B4800F094F80121094800F02AF8BA
:101830000821074800F0CAF80121054800F00AF81D
:101840000121034800F012F809B030BD000C01403E
:101850000008004021B1028842F08002028004E0CA
:1018600002884FF67F731A400280704721B10288C8
:1018700042F00102028004E002884FF6FE731A4033
:101880000280704731B1B0F8442042F40042A0F821
:10189000442005E0B0F84420C2F30E02A0F8442032
:1018A0007047000070B5002400220023058C4FF61D
:1018B000FE7635400584028C8388048B4FF68F7545
:1018C0002C40B51E2C400D882C43751E2A400D89D6
:1018D0002A434D882A43144DA8420BD0134DA842E9
:1018E00008D0134DA84205D0124DA84202D0124D87
:1018F000A84213D14FF6F7752A404D892A434FF677
:10190000FB752A408D882A434FF6FF652B404FF622
:10191000FF552B408D892B43CD892B438380048336
:10192000CD888586028470BD002C014000340140C2
:101930000040014000440140004801400A460021A7
:10194000018B4FF6F7731940114301837047000074
:1019500070B5002200230024058C4EF6FF7635403A
:101960000584038C8488828B48F6FF752A404FF6E5
:10197000FF452A400D884FF6FF7606EA05252A43E3
:101980004DF6FF752B400D8906EA05352B434D8832
:1019900006EA05352B430B4DA84202D00A4DA8425A
:1019A00008D14BF6FF752C408D894FF6FF7606EA7D
:1019B00085152C4384808283CD88A0F84050038411
:1019C00070BD0000002C0140003401400A46002197
:1019D000818B4FF2FF7319404FF6FF7303EA022326
:1019E00019438183704781867047A0F84010704783
:1019F000002202881D4B98420ED01D4B98420BD0FE
:101A0000B0F1804F08D01B4B984205D01A4B98423A
:101A100002D01A4B984204D14FF68F731A404B886C
:101A20001A43174B984207D0164B984204D04FF6F2
:101A3000FF431A40CB881A4302808B8883850B882A
:101A400003850A4B98420BD0094B984208D00E4BA5
:101A5000984205D00D4B984202D00D4B984201D1CF
:101A60000B7A03860123838270470000002C01401B
:101A7000003401400004004000080040000C004019
:101A800000100040001400400040014000440140AC
:101A90000048014010B540F224411C4800F0C0F855
:101AA00020B11A4800F0E6F800F036F8082117488F
:101AB00000F0A9F8012806D10821144800F09AF88E
:101AC000124800F0D7F840F22551104800F0A8F86D
:101AD000D8B10E4800F0CEF8C4B20D48008800F42A
:101AE000004088B90A480088C0F30E00B0F5957F21
:101AF0000ADC07480088C0F30E0006490C5404486D
:101B00000088401C0249088000BF10BD0038014019
:101B10003C000020A805002012480088C0F30E00F9
:101B2000801E1149085C0D280DD100210D48008848
:101B3000C0F30E00801E0C4A11540A480088801E13
:101B40000849088006E0002006490988C1F30E0113
:101B5000054A50540348008840F400400149088079
:101B6000704700003C000020A805002010B540F29E
:101B700025511D4800F054F810B31B4800F07AF8C6
:101B8000C4B21A48008800F40040C8B91748008859
:101B900000F4804060B10A2C03D000201349088073
:101BA00021E01248008840F40040104908801AE003
:101BB0000D2C06D10D48008840F480400B49088068
:101BC00011E00A480088C0F30D0009490C54074889
:101BD0000088401C0549088008460088B0F5487F09
:101BE00001DB0020088010BD0048004028000020D4
:101BF0005400002001F40072B2F5007F00D100BF54
:101C0000CA430280704702460020B1F5007F00D130
:101C100000BF13880B400BB1012000E0002070478B
:101C200070B50246002400230025002040F66A1605
:101C3000B14200D100BFC1F3421501F01F030126DC
:101C400006FA03F3012D02D19689334006E0022DF6
:101C500002D1168A334001E0968A33400C120126E5
:101C600006FA04F41688344013B10CB1012000E0E8
:101C7000002070BD01468888C0F30800704700BF8F
:101C8000FEE710B50446FEF763FE7820FEF726FE59
:101C9000FEF7AAFE0020FEF721FEFEF7A5FE204675
:101CA000FEF71CFEFEF7A0FEFEF778FE10BD10B595
:101CB0000446FEF74DFE7820FEF710FEFEF794FE78
:101CC0004020FEF70BFEFEF78FFE2046FEF706FED5
:101CD000FEF78AFEFEF762FE10BD00002DE9FC5FF4
:101CE00081460C4600BFB42C01DDBDE8FC9F2046B8
:101CF00000F017FF07460022494B00F08DFD824699
:101D000000224FF0804300F01FFF0022454BCDE939
:101D1000000100F0D9FC05460E46B9F1010F14D1BF
:101D2000414804700022414B2846314600F00CFF28
:101D3000074600F0C9FEC0B2C0F1C8001FFA80FA21
:101D400051463B48FFF74FFE68E0B9F1020F24D13E
:101D500038480078C0F1B401A4F1140081421CDDC0
:101D600034480078C0F1B400001B642815DA32480A
:101D7000047000222D4B2846314600F0E5FE074650
:101D800000F0A2FEC0B2C0F1C8001FFA80FA5146AE
:101D90004FF08040FFF727FE40E0B9F1030F22D15A
:101DA000C4F1B40124480078143881421BDDC4F129
:101DB000B40021490978401A642814DA1D480470D7
:101DC00000221A4B2846314600F0BEFE074600F0BE
:101DD0007BFEC0B2C0F1C8001FFA80FA5146174816
:101DE000FFF701FE1AE0B9F1040F17D1502C15DDF1
:101DF000852C13DC1248047000220C4B2846314617
:101E000000F0A2FE074600F05FFEC0B2C0F1C800BD
:101E10001FFA80FA51460B48FFF7E7FD00BF64E761
:101E2000008066400000E03F0400002000002440E5
:101E3000002C0140060000200500002000040040A6
:101E4000070000200008004010B56848007800280E
:101E500014D066484078612811D165480078C0F1F7
:101E6000B40064490978884208DB62480078604A17
:101E700012781044C1B20220FFF730FFB5E05B4892
:101E8000407871280FD15B48007859490978884219
:101E9000F4DB58480078564A1278801AC1B2022002
:101EA000FFF71CFFA1E05148407864280FD1524849
:101EB00000784F4909788842E0DB4F4800784C4A67
:101EC0001278801AC1B20320FFF708FF8DE047485F
:101ED0004078652811D146480078C0F1B4004649E1
:101EE00009788842CADB44480078414A1278104495
:101EF000C1B20320FFF7F2FE77E03C4840786B2840
:101F000011D13B480078C0F1B4003C4909788842BF
:101F10006BDB3A480078364A12781044C1B201208F
:101F2000FFF7DCFE61E0314840783B280FD13348B1
:101F300000782F490978884257DB304800782C4ACE
:101F40001278801AC1B20120FFF7C8FE4DE0274881
:101F500040786F2811D126480078C0F1B400284994
:101F60000978884241DB26480078214A12781044DB
:101F7000C1B20420FFF7B2FE37E01C4840786C285D
:101F80000FD11F4800781A49097888422DDB1C4878
:101F90000078174A1278801AC1B20420FFF79EFE1B
:101FA00023E012484078722810D15A210120FFF70F
:101FB00095FE5A210220FFF791FE2D210320FFF705
:101FC0008DFE64210420FFF789FE0EE0074840786B
:101FD00039280ADC05484078312806DB0348407878
:101FE000303800EB40000249087010BD5C0400204E
:101FF000080000200500002006000020040000204A
:102000000700002010B50420FFF7AEFA074800686B
:102010000749B0FBF1F007490870084600784FF413
:102020007A7148430449086010BD00000C0000208C
:1020300040420F00200000202400002030B501465F
:10204000C82491FBF4F4A3B2002226E02C4C2468AF
:10205000C8256C434FF0E0256C610024AC612C4630
:10206000246944F001042C612C46A06900BF4FF0A4
:10207000E024206900F001041CB100F48034002C3D
:10208000F5D04FF0E024246924F001044FF0E0255E
:102090002C610024AC61541CE2B29A42D6DBC82405
:1020A00091FBF4F504FB151444B3C82491FBF4F53B
:1020B00004FB1514124D2D686C434FF0E0256C6144
:1020C0000024AC612C46246944F001042C612C46A8
:1020D000A06900BF4FF0E024206900F001041CB1AA
:1020E00000F48034002CF5D04FF0E024246924F073
:1020F00001044FF0E0252C610024AC6130BD0000EC
:10210000240000200146124A12784A434FF0E0238F
:102110005A6100229A611A46126942F001021A615C
:102120001A46906900BF4FF0E022106900F00102EA
:102130001AB100F48032002AF5D04FF0E022126983
:1021400022F001024FF0E0231A6100229A617047E9
:102150002000002008B5FEF787FE0C231EA20021F8
:102160000846FFF733F81020032300901C4802783C
:1021700000211B20FEF7E0FF0C231AA200214020C3
:10218000FFF724F81020032300901848027800215C
:102190005E20FEF7D1FF0C2315A21E210020FFF7C1
:1021A00015F8102003230090134802781E210846DA
:1021B000FEF7C2FF0C2311A21E214020FFF706F8F4
:1021C0001020032300900F4802781E215E20FEF7A6
:1021D000B3FFFEF705FF08BD6F6E6520000000002D
:1021E0000400002074776F2000000000050000202C
:1021F000746872656520000006000020666F7572C5
:10220000200000000700002008B501210420FFF78E
:1022100039F84FF4C060ADF8000048208DF8030095
:1022200003208DF8020069460148FEF77AFA08BDDE
:1022300000080140FFF7E6FEFEF716F900F08AF805
:102240000A2000F0E7F94049086041F61F41C72025
:10225000FFF7D0F941F61F41C720FFF717FA41F603
:102260001F41C720FFF75EFA41F61F41C720FFF765
:10227000A5FAFEF745FEFFF7C7FF5A210120FFF739
:102280002DFD4FF4FA70FFF7D9FE5A210220FFF717
:1022900025FD4FF4FA70FFF7D1FE2D210320FFF743
:1022A0001DFD4FF4FA70FFF7C9FE64210420FFF70B
:1022B00015FDFEF7B7FC0FE04FF4FA60FFF7BEFE26
:1022C00050210120FFF70AFD4FF4FA60FFF7B6FE38
:1022D00064210120FFF702FDFEF714FC0028EBD17A
:1022E00031E01A48006800BB0A20FFF7A7FE00BFD4
:1022F000164800680028FBD015480078012807D14F
:1023000000201349087050210120FFF7E7FC08E086
:102310000F48007828B901200D4908707821FFF78F
:10232000DDFC4FF47A70FFF789FE09480078012838
:1023300002D100F089F804E00548007808B900F0FF
:1023400073F8FFF707FFCCE70000002024012142CB
:102350000900002000B509494FF42072C868002127
:1023600000F068F905494FF420528868002100F018
:1023700061F901200149087400BD000040000020FF
:102380002DE9F04106460024A0461A48007C10B909
:102390001849086880471EB94FF0FF30BDE8F0814A
:1023A000C6F34F1506F01F0008B1681C85B240F255
:1023B0003F141AE00F48C06830F8140020B908F143
:1023C00001001FFA80F801E04FF00008A8450BD18A
:1023D000002705E00748C068E11920F811507F1C6C
:1023E000AF42F7D36001D9E7641E002CE2DA4FF068
:1023F000FF30D3E7400000200022002106E009481A
:10240000C06830F8110000B1521C491CB1F5A07F22
:10241000F5D3642050434FF4A073B0FBF3F0C0B287
:10242000704700004000002010B5FEF71DFC00BF03
:102430000448FEF76DFC4028FAD1FFF705FD00F0D7
:1024400019F910BD5C0400202DE9F84F4FF0010A86
:102450001DE046215046FEF70DFA009000F061FBAA
:1024600080460022624B00F0D7F906460022614BFD
:1024700000F06AFB044600F027FB00F0FF0B594612
:102480005046FFF72BFC0AF1010000F0FF0ABAF1F9
:10249000040FDEDD5848007868B95848006850B924
:1024A0000A20FFF7CBFD00BF544800680028FBD08E
:1024B00001205149087050480078012815D1504832
:1024C0000078752811DB4F4800784F49096848703B
:1024D0004E4800784C49096888704D4800784A4950
:1024E0000968C870022044490870434800780228EF
:1024F00015D1434800785A2811DC424800784249F7
:1025000009680871414800783F49096848714048A6
:1025100000783D49096888710320374908703648BA
:102520000078032862D13548006800285ED10A206F
:10253000FFF784FD00BF314800680028FBD0324817
:10254000006841780120FFF7C9FB4FF4FA60FFF7FC
:1025500075FD2D48006881780220FFF7BFFB4FF41E
:10256000FA60FFF76BFD28480068C1780320FFF789
:10257000B5FB4FF4FA60FFF761FD50210420FFF72F
:10258000ADFB4FF4FA60FFF759FD7F210420FFF700
:10259000A5FB4FF4FA60FFF751FD1B480068017975
:1025A0000120FFF79BFB4FF4FA60FFF747FD164849
:1025B000006841790220FFF791FB4FF4FA60FFF7C2
:1025C0003DFD1148006881790320FFF787FB4FF438
:1025D000FA60FFF733FD50210420FFF77FFB4FF433
:1025E000FA60FFF72BFD002003490870BDE8F88F63
:1025F0000000B040008066400A000020280121420F
:10260000070000200400002000000020050000203A
:102610000600002070B505462846FFF7B1FE0446C7
:10262000601C08B9002070BD014880682044FAE7AA
:102630004000002030B5034601E003F8011B140000
:10264000A2F10102F9D130BD10B50246012000E02F
:1026500050430B00A1F10104E1B2F9D110BD10B556
:1026600002460120002301E050435B1C8B42FBD358
:1026700010BD000010B5FEF769FB05200C4908707D
:102680000C48007848700C48007888700B48007837
:10269000C8700B48007808710A480078487100BF7C
:1026A0000348FEF777FB2028FAD1FEF7DDFA10BDCC
:1026B0003C0400200400002005000020060000204B
:1026C000070000200800002010B591EA030F48BF62
:1026D00083F0004300F13E83841A71EB030C05D2B2
:1026E000121943EB0C03001B61EB0C01DFF824E132
:1026F0004FEA1154A4EB135C1EEA430F18BF9EEA85
:10270000445F73D023EA0E03DCF1200E21EA04516A
:1027100043F4801332D322FA0CFE10EB0E0023FA9E
:102720000CFE41EB0E01CCF1200E03FA0EFE10EB75
:102730000E0051F10001B1F5801FCCF1200E32D214
:1027400001EB045112FA0EF2BDE8104058BF704779
:10275000401C38BF5FEA420218BF7047002814BF10
:1027600020F0010041F100014FEA410313F5001F81
:1027700038BF7047A1F1C04100F0DEBA012A43EB37
:102780000302ACF1200CDCF11F0E32BF4FF0000E43
:1027900023FA0CF310EB030041EB0451B4EB115F8F
:1027A000D0D0A1EB045101F5801149085FEA300057
:1027B00001EB04510ED350F1000038BF12FA0EFEA7
:1027C00008D1BDE81040C9E7401C38BF5FEA4202AB
:1027D000CAD1C3E7BDE810404FEA410313F5001F1B
:1027E00038BF7047A1F1C04100F0A6BA9EEA445F2D
:1027F00008D011EA5E0FBDE8104004BF01F00041AF
:1028000000207047BDE8104070B500F047FA00BFE7
:1028100064FBBE3E0000E0FF2DE9C04130B4DFF8AC
:10282000A0C23CEA111418BF3CEA131400F0EC807B
:1028300081EA03051CEA111444EAD57418BF1CEAA6
:10284000131500F0C780A4EB05044FF0004545EADE
:10285000C12145EAC32341EA505143EA525304F1EE
:102860007F74994204F500344FEAC0204FEAC22237
:1028700008BF904200F09C804FEA13650FF24016AB
:10288000765D4FEA134506FB05F7C7F1807706FB37
:1028900007F74FEAD737A7FB03687642C8F58038B9
:1028A000A7FB06CE38BFA8F1010807FB08E64FF0EA
:1028B000000EA6FB028CE6FB03CEDCF1000CCEF191
:1028C000004E38BFAEF1010EA6FB0C584FF00007CA
:1028D0004FF00005E6FB0E87A1FB08C6A0FB07CE64
:1028E00016EB0E0645F10005E1FB076515F1E04E1C
:1028F0007EBFA4F580345FEA46066D4116F180077D
:1029000045F100054FEA17274FEA066647EA0567D3
:10291000A6F1DE46B6F1805F4FEA15251FD938468D
:1029200024F0010C05EBC471BCF1FE6F01EB0C113E
:1029300002D8F0BCBDE8008124425CBF01F5801ED6
:102940009EEAC47F02D4F0BCBDE80081244238D4A2
:10295000F0BCA1F1C041BDE8004100F0EDB94FEA83
:10296000D22242EA43524FEAD323A7FB02864FEA20
:10297000D02040EA415007FB03661EEA0E0F4FEAE3
:10298000D12105FB026658BFA6EB0056B6EB0056F8
:102990004FEA520E4EEAC37E18EB0E0E56EB530E64
:1029A000BDD518EB02085E417F1C55F10005B6E766
:1029B0004FF480154FF000074FF000064FF000086D
:1029C000ADE7F0BC4FF0000001F1C04101F0004163
:1029D000BDE8008111EA0C1F0CEA131500D00CE0D1
:1029E00013EA0C1F00F025804FF00000F0BC81EAD4
:1029F000030101F00041BDE80081F0BCBDE80041E9
:102A000081EA030100F098B9F0BCBDE8004170B55F
:102A100000F044F9097EFC3E00F007B881EA0301AA
:102A20004FF0000001F00041704781EA030100F01F
:102A300083B9F0BCBDE800414FF000002149704768
:102A4000FFFDFBF9F7F5F4F2F0EEEDEBE9E8E6E473
:102A5000E3E1E0DEDDDBDAD8D7D5D4D3D1D0CFCDFA
:102A6000CCCBCAC8C7C6C5C4C2C1C0BFBEBDBCBB33
:102A7000BAB9B8B7B6B5B4B3B2B1B0AFAEADACAB2E
:102A8000AAA9A8A8A7A6A5A4A3A3A2A1A09F9F9E08
:102A90009D9C9C9B9A9999989797969595949393BA
:102AA000929191908F8F8E8E8D8C8C8B8B8A898951
:102AB00088888787868585848483838282818180D4
:102AC0000000FF070000F87F4FEA1153A3F5806371
:102AD000D3F11E03A8BFD3F1200C08DB4FF0004256
:102AE00042EAC12252EA505232FA03F070470942D8
:102AF0000BD4102BC4BF0020704703F5787CBCF1C9
:102B0000FF3F05D04FF0FF3070474FF00000704797
:102B100070B500F0C3F800BF4992248000207047D0
:102B2000F0E7B0FA80F310FA03F10AD0C3F11D0305
:102B300003F580634FEA41504FEA035202EBD12183
:102B400070474FF000007047DFF848C170B51CEACD
:102B5000111E1EBF1CEA13159EEA0C0F95EA0C0FFE
:102B600000F06F8081EA030423EA4C134EEAD47E1E
:102B700021EA4C1141F4801143F48013AE44A1FBCF
:102B8000024CA0FB0365AEF17F7E361955EB0C05B8
:102B9000A1FB034C4CF10003A0FB021C16EB0C063E
:102BA000654153F10003094218BF46F0010613F4D2
:102BB000007F0BD14FEA03314FEA0530340341EA7D
:102BC000155140EA16506FF003020AE04FEAC321A4
:102BD0004FEAC520F40241EA555140EA56506FF0E1
:102BE000020202EB2E4201EB025585EACE710AD0B9
:102BF0005FEA440C18BF24F0004450F1000041F19A
:102C0000000120EAD47040F2FE7C624500D270BD23
:102C1000A84214BF4FF080444FF04044002E08BF3C
:102C20000024BEF1806FA8BFA1F1C041BDE8704093
:102C300080F282804FF0000001F1C04101F00041BC
:102C400070479EEA0C0F0CEA131518BF95EA0C0F9B
:102C500006D04FF0000081EA030E0EF0004170BD77
:102C600000F01CF88900013E00F007B800F009B838
:102C70004FEA430C5FEA5C5C08D081EA030100F094
:102C80005BB84FEA410C5FEA5C5CF6D14FF00000A4
:102C9000014970470000FF070000F87F0EF1020EA7
:102CA0002EF0030E5EF8046B364205D4012A43EB86
:102CB000030515F5001F12D8012841EB010C1CF586
:102CC000001F0CD80ED14FEAD17C15F5001F0CEB7C
:102CD0004C0C0CF1020C08BF4CEBD37C04E04FF021
:102CE000080C01E04FEAD37C0CEB4C0526FA05F604
:102CF00006F00706B6F1040C06D20EEB860CBDE812
:102D000070404CF0010C6047DFE80CF0090B020248
:102D10004FF000414FF00000A1F5002170BD1946B1
:102D20001046012851EB010418BFD4F5001484BFEC
:102D3000002001F0004170BD0808A0F500114FEA25
:102D40003101704710B591EA030F48BF83F000438B
:102D50003FF5C2AC841A71EB030C07D212198CF048
:102D6000004C43EB0C03001B61EB0C01DFF8A4E10A
:102D70004FEA1154A4EB135C1EEA430F18BF9EEAFE
:102D8000445F00F0B08023EA6E03524221EA04510E
:102D9000C3EB6E0338BF5B1EDCF1200E25D322FA95
:102DA0000CFE10EB0E0043FA0CFE41EB0E01CCF1D1
:102DB000200E03FA0EFE10EB0E0051F10001CCF1D3
:102DC000200E29D412FA0EF201EB0451BDE8104096
:102DD00058BF7047401C1CBFB2F1004F704700281D
:102DE0000CBF491C20F00100704712EB020E43EBB0
:102DF000030218BF4FF0010E4EEA4202ACF1200C64
:102E0000DCF11E0E54D943FA0CFE10EB0E0051F10A
:102E1000FF31CCF11E0ED5D50EF1010E12FA0EFEC9
:102E2000404141EB010101EB445C5FEA5C5C10D97D
:102E300010EBDE7001EB045138BFBEF1004FBDE86E
:102E4000104018BF704700280CBF491C20F001003B
:102E5000704730D24FEAD42C11F5001124F40064ED
:102E60001BD0B1FA81F20B3AA41AA41ED2F12003AE
:102E7000914030FA03F31943904001EBCC71002CE0
:102E800001EB0451BDE81040A8BF704701F1C041FB
:102E90004FF0000001F000417047B0FA80F310FAE3
:102EA00003F100D110BDE41A173C4805C90AE4E754
:102EB00001EB045110BD491001EB0451BDE8104075
:102EC0004FEA300002E04FF0000170474A0008BFAF
:102ED0000042F8D0B2F5001F28BF704701F0004152
:102EE0004FF0000070479EEA445F07D011EA5E0F82
:102EF000BDE8104004BF002100207047BDE810402D
:102F000070B5FFF7CBFE00BF40DFF63E83F0004117
:102F1000104670470000E0FF0000000000000000C5
:102F200000000000000000003F4000000000000022
:102F300000003000400030004000000009000BC0DD
:102F40003D000BC03D00090018C024407FE0224036
:102F500031800000180024C01B000D803240018029
:102F600003801C4027401C80074000401000600088
:102F700000000000000000000000000000001F80B2
:102F8000204040200000402020401F800000000022
:102F9000090006001F80060009000000040004006C
:102FA0003F800400040000000010006000000000EA
:102FB00000000000040004000400040004000000FD
:102FC000000000400000000000000000002001C0E0
:102FD00006003800400000001F80204020402040B4
:102FE0001F800000000010403FC0004000000000B3
:102FF00018C021402240244018400000108020408A
:10300000244024401B80000002000D0011003FC03E
:10301000014000003C8024402440244023800000E4
:103020001F802440244034400380000030002000F2
:1030300027C03800200000001B802440244024408A
:103040001B8000001C0022C0224022401F80000084
:103050000000000008400000000000000000000028
:103060000460000000000000000004000A001100DD
:103070002080404009000900090009000900000003
:1030800000004040208011000A00040018002000C9
:1030900023402400180000001F80204027402940C2
:1030A0001F400000004007C039000F0001C0004071
:1030B00020403FC0244024401B8000001F8020404F
:1030C000204020403080000020403FC02040204071
:1030D0001F80000020403FC024402E4030C0000030
:1030E00020403FC024402E00300000000F00108020
:1030F000204022403380020020403FC004000400F2
:103100003FC02040204020403FC0204020400000E1
:103110000060202020203FC02000200020403FC031
:1031200024400B0030C0204020403FC020400040E1
:10313000004000C03FC03C0003C03C003FC0000056
:1031400020403FC00C4023003FC020001F80204093
:10315000204020401F80000020403FC02440240029
:10316000180000001F802140214020E01FA0000027
:1031700020403FC02440260019C0004018C0244011
:103180002440224031800000300020403FC02040D9
:103190003000000020003F80004000403F802000C1
:1031A00020003E0001C0070038002000380007C0A2
:1031B0003C0007C038000000204039C0060039C07C
:1031C000204000002000384007C0384020000000A8
:1031D000304021C02640384020C0000000000000E0
:1031E0007FE0402040200000000070000C000380C1
:1031F000004000000000402040207FE00000000070
:10320000000020004000200000000000001000101E
:10321000001000100010001000000000400000002E
:1032200000000000000002800540054003C000408F
:1032300020003FC0044004400380000000000380E1
:103240000440044006400000000003800440244085
:103250003FC00040000003800540054003400000DF
:10326000000004401FC0244024402000000002E071
:10327000055005500650042020403FC00440040083
:1032800003C000400000044027C0004000000000D0
:1032900000100010041027E00000000020403FC094
:1032A0000140070004C00440204020403FC00040CF
:1032B0000040000007C0040007C0040003C0000075
:1032C000044007C00440040003C000400000038025
:1032D0000440044003800000041007F00450044040
:1032E00003800000000003800440045007F0001039
:1032F000044007C002400400040000000000064033
:103300000540054004C00000000004001F80044088
:1033100000400000040007800040044007C0004057
:103320000400070004C0018006000400060001C07C
:10333000070001C006000000044006C0010006C0EE
:10334000044000000410071004E00180060004009F
:103350000000044005C006400440000000000000DA
:1033600004007BE040200000000000000000FFF0AF
:1033700000000000000040207BE00400000000008E
:1033800040008000400020002000400000000000BD
:10339000000000000000000000000000000000002D
:1033A00000001FCC000C000000000000000008001E
:1033B000300060000800300060000000022003FCC4
:1033C0001E20022003FC1E200220000000000E1818
:1033D00011043FFF10840C78000000000F001084DF
:1033E0000F3800C0077818840078000000780F8438
:1033F00010C411240E9800E400840008080068003E
:10340000700000000000000000000000000000004C
:10341000000007E0181820044002000000004002ED
:103420002004181807E000000000000002400240DD
:1034300001800FF001800240024000000080008007
:1034400000800FF800800080008000000001000D67
:10345000000E0000000000000000000000000080DE
:103460000080008000800080008000800000000C50
:10347000000C00000000000000000000000000063A
:10348000001800600180060018002000000007F00E
:10349000080810041004080807F0000000000804E1
:1034A00008041FFC000400040000000000000E0CD3
:1034B00010141024104411840E0C000000000C188D
:1034C00010041104110412880C700000000000E0C8
:1034D0000320042408241FFC0024000000001F987F
:1034E000108411041104108810700000000007F00F
:1034F00008881104110418880070000000001C00E6
:10350000100010FC13001C001000000000000E381A
:1035100011441084108411440E380000000007008C
:10352000088C10441044088807F0000000000000D8
:103530000000030C030C000000000000000000006D
:1035400000010106000000000000000000000080F3
:10355000014002200410080810040000022002208C
:10356000022002200220022002200000000010049D
:1035700008080410022001400080000000000E0036
:103580001200100C106C10800F00000003E00C18EB
:1035900013E4142417C4082807D000000004003CDA
:1035A00003C41C40074000E4001C000410041FFC7E
:1035B0001104110411040E880070000003E00C18BF
:1035C00010041004100410081C10000010041FFC4C
:1035D000100410041004080807F0000010041FFC79
:1035E0001104110417C410040818000010041FFC73
:1035F0001104110017C010000800000003E00C18AF
:103600001004100410441C780040000010041FFC3B
:1036100010840080008010841FFC1004000010043F
:1036200010041FFC1004100400000000000300013F
:10363000100110011FFE10001000000010041FFCFC
:10364000110403801464181C1004000010041FFCF3
:103650001004000400040004000C000010041FFC0F
:103660001F0000FC1F001FFC1004000010041FFCC2
:103670000C04030000E010181FFC100007F00808FD
:10368000100410041004080807F0000010041FFCC8
:1036900010841080108010800F00000007F00818C0
:1036A00010241024101C080A07F2000010041FFC4C
:1036B0001104110011C011300E0C000400000E1C8A
:1036C00011041084108410441C38000018001000ED
:1036D00010041FFC100410001800000010001FF858
:1036E00010040004000410041FF8100010001E0055
:1036F00011E0001C007013801C0010001FC0103C63
:1037000000E01F0000E0103C1FC000001004180C77
:10371000163401C001C01634180C100410001C002F
:10372000130400FC13041C00100000000804101C0B
:103730001064108413041C04101800000000000022
:1037400000007FFE40024002400200000000300006
:103750000C0003800060001C000300000000400219
:10376000400240027FFE0000000000000000000058
:103770002000400040004000200000000001000147
:1037800000010001000100010001000100004000F3
:103790004000200000000000000000000000009831
:1037A000012401440144014400FC000410001FFCFA
:1037B000008801040104008800700000000000700F
:1037C000008801040104010400880000000000706A
:1037D00000880104010411081FFC0004000000F827
:1037E000014401440144014400C8000000000104F8
:1037F00001040FFC1104110411001800000000D690
:1038000001290129012901C90106000010041FFC3A
:10381000008401000100010400FC00040000010418
:10382000190419FC0004000400000000000000035B
:1038300000010101190119FE0000000010041FFC25
:103840000024004001B4010C010400000000100439
:1038500010041FFC0004000400000000010401FC2F
:103860000104010001FC0104010000FC010401FC51
:10387000008401000100010400FC0004000000F8C5
:10388000010401040104010400F80000010101FF2A
:103890000085010401040088007000000000007031
:1038A000008801040104010501FF00010104010475
:1038B00001FC00840104010001800000000000CC34
:1038C00001240124012401240198000000000100CA
:1038D000010007F80104010400000000010001F8E4
:1038E000000400040004010801FC00040100018040
:1038F0000170000C001001600180010001F0010C5A
:10390000003001C00030010C01F001000000010492
:10391000018C00740170018C01040000010101811F
:103920000171000E00180160018001000000018497
:10393000010C013401440184010C0000000000006E
:103940000000000001003EFC4002400200000000B8
:1039500000000000FFFF0000000000000000400227
:1039600040023EFC0100000000000000000060007A
:103970008000800040004000200020000000000087
:103980000000000000000000000000000000000037
:103990000000000000000000000000000000000027
:1039A0000000000000000000000000000000000F08
:1039B00080380FFE380F8038000000000000000043
:1039C00000000000000000000000010000060000F0
:1039D0000C00003800003100000600000C00003828
:1039E000000030000000000000000000618000675F
:1039F000F807F980006180006180006180006180CB
:103A00000067F807F98000618000000000000000F6
:103A1000000001C0E003E0F00630080418081FFFB2
:103A2000FE040E080787F00381E00000000000009C
:103A300001F000060C00040408060C7001F9C00037
:103A40000E00003BE000EC18070808040C18000307
:103A5000E00000000001E00007F003F818041C0873
:103A600004170807E1D003C0E00023B0003C0800C1
:103A700020080000100000000000000100003100DC
:103A8000003200001C0000000000000000000000E8
:103A90000000000000000000000000000000000026
:103AA0000000000000000000000000007F0001FF97
:103AB000C00780F00C001810000420000200000075
:103AC0000000002000021000040C00180780F00124
:103AD000FFC0007F000000000000000000000000A8
:103AE00000000000000000004200006600006600C8
:103AF000003C0000180003FFC0001800003C00005C
:103B00006600006600004200000000000800000897
:103B10000000080000080000080001FFC0000800C5
:103B20000008000008000008000008000000000075
:103B3000000100003100003200001C000000000005
:103B40000000000000000000000000000000000075
:103B50000000000008000008000008000008000045
:103B60000800000800000800000800000800000825
:103B700000000000000000000000000038000038D5
:103B800000003800000000000000000000000000FD
:103B9000000000000000000000000000000600001F
:103BA0001C000070000180000E0000380000C00002
:103BB0000700001C000030000000000000000000B2
:103BC0007F8001FFE00380700600180400080400F5
:103BD0000806001803807001FFE0007F80000000ED
:103BE00000000000000001000801000801000803B7
:103BF000FFF807FFF80000080000080000080000B8
:103C00000000000000000001C03802C05804009805
:103C1000040118040218040418061C1803F81801FB
:103C2000E0F800000000000000000001C0E003C058
:103C3000F004000804080804080806180803F4182B
:103C400001E7F00001E000000000000000000000BB
:103C50000300000D00001100006100008108030155
:103C60000807FFF80FFFF800010800010800000036
:103C70000000000000E007FCD00608080610080657
:103C80001008061008061838060FF00607C00000D6
:103C900000000000000000003F8001FFE0038430CE
:103CA000020818041008041008041008071810036C
:103CB0000FF00007C000000000000000000003C07B
:103CC000000700000600000600F80607F8061800C6
:103CD00006E00007000006000000000000000001F0
:103CE000E1E003F7F0063410041808041808040C87
:103CF00008040C0806161803F3F001C1E0000000E8
:103D000000000000F80003FC300306380402080439
:103D100002080402080404100308F001FFC0007F39
:103D20000000000000000000000000000000000093
:103D3000000000007038007038007038000000008B
:103D40000000000000000000000000000000000073
:103D50000000000000000000301A00301C000000CD
:103D60000000000000000000000000000000000053
:103D70000000000800001400002200004100008044
:103D8000800100400200200400100800080000002C
:103D9000000000002100002100002100002100009F
:103DA000210000210000210000210000210000214D
:103DB00000000000000000000000080008040010DF
:103DC000020020010040008080004100002200002D
:103DD000140000080000000000000003C00004C040
:103DE00000040000080038080F38080838081000E0
:103DF0000C300007E00003C00000000000000000DD
:103E00003F8000FFE0038070020F1006708804C03E
:103E100088048308047F8802C09003012000FE40CC
:103E20000000080000180001F8003E0801C2000769
:103E3000020007E20000FE00001FC80001F80000B9
:103E40003800000804000807FFF807FFF804080816
:103E500004080804080804080806180803F41801F0
:103E6000E7F00001E0000000000000003F8001FFDB
:103E7000E003807002001804000804000804000831
:103E80000400100600200780C0000000040008079E
:103E9000FFF807FFF8040008040008040008040005
:103EA0001802001003807001FFE0007F8000000016
:103EB00004000807FFF807FFF804080804080804CE
:103EC0000808040808043E08040008060018010059
:103ED0006000000004000807FFF807FFF804080866
:103EE000040800040800040800043E000600000660
:103EF0000000018000000000000000003F8001FF82
:103F0000E003807006001804000804020804020898
:103F10000203F00783F0000200000200040008071B
:103F2000FFF807FFF8040808000800000800000870
:103F30000000080004080807FFF807FFF80400085D
:103F40000000000000000400080400080400080746
:103F5000FFF807FFF8040008040008040008000048
:103F60000000000000000000000600000700000143
:103F700004000104000104000307FFFE07FFFC0426
:103F8000000004000004000004000807FFF807FF19
:103F9000F8040C08001800003E0004C7800503C8A0
:103FA0000600F804003804001800000804000807A0
:103FB000FFF807FFF80400080000080000080000F0
:103FC0000800000800000800001800006000000061
:103FD00004000807FFF807800807FC00007FC00006
:103FE00003F80007C000780007800807FFF807FF04
:103FF000F804000804000807FFF807000803C000E1
:1040000000E000003800001E000007000001C004AE
:1040100000F007FFF8040000000000007F8001FFAF
:10402000E003807006001804000804000806001869
:1040300003003001FFE0007F80000000040008075B
:10404000FFF807FFF8040408040400040400040453
:1040500000040400060C0003F80001F0000000005A
:10406000000000007F8001FFE003807006008804EC
:1040700000880400C806003C03003E01FFE6007F04
:104080008400000004000807FFF807FFF804080890
:10409000040800040C00040F00040BC00610F00319
:1040A000F03801E00800000800000001E0F803F02B
:1040B00030063010041808041808040C08040C0812
:1040C0000206180207F00781E000000001800006E8
:1040D000000004000004000004000807FFF807FFC8
:1040E000F80400080400000400000600000180003D
:1040F00004000007FFE007FFF004001800000800BC
:10410000000800000800000800000804001007FF75
:10411000E004000004000006000007E00007FE00C5
:10412000041FE00001F80000380001E0043E000731
:10413000C00006000004000004000007E00007FFC4
:10414000C0041FF80007C007F80007FF80043FF80D
:104150000007C004F800070000040000000000048D
:10416000000806001807C07805F1C8003E00001FCF
:10417000800463E80780F8060018040008000000C7
:1041800004000006000007800007E008047C080027
:104190001FF80007F800180804E0080700000600F0
:1041A000000400000000000100080600380400F8C8
:1041B0000403E8040F08047C0805F00807C008079A
:1041C0000018040060000000000000000000000073
:1041D000000000000000003FFFFE2000022000025F
:1041E0002000022000022000020000000000000069
:1041F000000008000007000000C0000038000006B2
:10420000000001C000003000000E000001000000AE
:104210000000000000002000022000022000022018
:1042200000022000023FFFFE00000000000000002E
:104230000000000000000000000000000008000076
:1042400010000030000020000030000010000008C6
:10425000000000000000000000000100000100005C
:104260000100000100000100000100000100000148
:10427000000001000001000001000001000000003A
:1042800000000000002000002000001000001000CE
:10429000000000000000000000000000000000001E
:1042A0000000000000F00019F8001B1800220800B0
:1042B0002608002408002410003FF8001FF8000022
:1042C0000800001800000004000007FFF80FFFF0CE
:1042D00000181800100800200800200800301800FE
:1042E0001FF0000FC00000000000000007C0001F0A
:1042F000F0001830002008002008002008003C08CA
:10430000001C100000600000000000000000000021
:1043100007C0001FF0003818002008002008002007
:104320000804101007FFF80FFFF000001000000055
:104330000000000000000007C0001FF00012300065
:104340002218002208002208003208001E10000E69
:1043500020000000000000002000002008002008CD
:1043600001FFF803FFF806200804200804200807CE
:10437000200003000000000000000000000E000EFE
:104380006E001FF30031B10020B10020B100319167
:10439000001F13002E1E00200E003000000000043D
:1043A000000807FFF80FFFF80010080020000020A9
:1043B00000002008003FF8001FF80000080000007F
:1043C000000000000000002008002008002008066F
:1043D0003FF8063FF8000008000008000008000051
:1043E00000000000000000000000000003000003C7
:1043F000002001002001002003063FFE063FFC00D4
:10440000000000000000000000000004000807FF9A
:10441000F80FFFF8000188000300002FC00038F8F3
:104420000020380020080000080000000000000004
:10443000000004000804000804000807FFF80FFF4C
:10444000F80000080000080000080000000000005C
:10445000002008003FF8003FF8001008002000008E
:104460003FF8003FF8001008002000003FF8003F30
:10447000F8000008000000002008003FF8003FF8A6
:10448000001008001000002000002008003FF80085
:104490001FF80000080000000000000007C0000F27
:1044A000F000183000300800200800200800300814
:1044B000001830000FF00007C000000000000000EE
:1044C0002001003FFF003FFF0010110020090020E5
:1044D00008002008003038001FF0000FC000000066
:1044E0000000000007C0001FF0003818002008007E
:1044F0002008002009001011001FFF003FFF0000EE
:1045000001000000002008002008002008003FF8FB
:10451000003FF800080800100800200800200000F4
:104520003000003000000000000000000000000C1F
:1045300078001E1800330800230800210800218895
:104540000021980030F000386000000000000000FA
:10455000200000200000200000FFF003FFF80020F2
:1045600008002008002008000030000000000000C3
:10457000000000002000003FF0007FF8000018005D
:104580000008000008002010003FF8007FF0000045
:1045900010000000000000002000003000003C007F
:1045A000003F800023F000007800007000238000AE
:1045B0003C00003000002000002000003C00003FD4
:1045C000E00023F80000E0002700003E00003FE08C
:1045D0000021F80001E0003E000020000000000083
:1045E0002008002008003838003E680027800003BB
:1045F000C8002CF8003838002018002008000000FF
:10460000000000002000003003003C01003F830058
:1046100023EC000070002380003C000020000020FC
:1046200000000000000000000000003808002038F2
:104630000020F80023E8002F88003E08003808001A
:1046400020180000700000000000000000000000C2
:10465000000000000000000008000014001FF7FC2C
:1046600030000620000200000000000000000000F2
:104670000000000000000000000000000000FFFF3C
:10468000FF0000000000000000000000000000002B
:104690000000000000002000023000061FF7FC00B0
:1046A00014000008000000000000000000000000EE
:1046B0000000000000000018000060000040000042
:1046C000400000200000100000080000040000046A
:1046D00000000C00001000000000000000000000BE
:1046E000002F000000000700070000147F147F1453
:1046F00000242A7F2A1200626408132300364955D9
:10470000225000000503000000001C2241000000B0
:1047100041221C000014083E08140008083E080846
:10472000000000A0600000080808080800006060A1
:104730000000002010080402003E5149453E0000E0
:10474000427F4000004261514946002141454B31C2
:10475000001814127F10002745454539003C4A498E
:104760004930000171090503003649494936000600
:104770004949291E00003636000000005636000068
:1047800000081422410000141414141400004122E3
:10479000140800020151090600324959513E007CBB
:1047A0001211127C007F49494936003E41414122A5
:1047B000007F4141221C007F49494941007F09098E
:1047C0000901003E4149497A007F0808087F00003E
:1047D000417F4100002040413F01007F08142241F9
:1047E000007F40404040007F020C027F007F0408B1
:1047F000107F003E4141413E007F09090906003E0D
:104800004151215E007F0919294600464949493135
:104810000001017F0101003F4040403F001F204058
:10482000201F003F4038403F006314081463000716
:104830000870080700615149454300007F4141006D
:1048400000552A552A55000041417F00000402010D
:1048500002040040404040400000010204000020EB
:1048600054545478007F4844443800384444442029
:1048700000384444487F00385454541800087E09D6
:1048800001020018A4A4A47C007F0804047800009E
:10489000447D4000004080847D00007F102844005B
:1048A0000000417F4000007C04180478007C08046C
:1048B000047800384444443800FC242424180018A8
:1048C000242418FC007C0804040800485454542094
:1048D00000043F444020003C4040207C001C20401D
:1048E000201C003C4030403C004428102844001C60
:1048F000A0A0A07C004464544C4414141414141458
:1049000000000000000000000000000000000000A7
:10491000000000F80000000000000033300000003C
:1049200000100C06100C0600000000000000000043
:1049300040C07840C0784000043F04043F040400B5
:10494000007088FC08300000001820FF211E0000C5
:10495000F008F000E018000000211C031E211E00DA
:1049600000F00888700000001E2123241927211060
:1049700010160E0000000000000000000000000003
:10498000000000E0180402000000000718204000AA
:1049900000020418E000000000402018070000009A
:1049A000404080F0804040000202010F01020200FE
:1049B000000000F0000000000101011F01010100E2
:1049C000000000000000000080B070000000000047
:1049D00000000000000000000001010101010101D0
:1049E0000000000000000000003030000000000067
:1049F000000000008060180400601806010000003C
:104A000000E010080810E000000F102020100F0038
:104A1000001010F8000000000020203F20200000BF
:104A20000070080808887000003028242221300017
:104A300000300888884830000018202020110E001F
:104A40000000C02010F8000000070424243F2400C8
:104A500000F80888880808000019212020110E009D
:104A600000E0108888180000000F112020110E00AF
:104A700000380808C83808000000003F00000000A7
:104A80000070880808887000001C222121221C0068
:104A900000E010080810E0000000312222110F0091
:104AA000000000C0C0000000000000303000000026
:104AB0000000008000000000000080600000000096
:104AC00000008040201008000001020408102000AF
:104AD00040404040404040000404040404040400FA
:104AE000000810204080000000201008040201008F
:104AF000007048080808F00000000030360100008F
:104B0000C030C828E810E0000718272423140B0041
:104B10000000C038E0000000203C230202273820BB
:104B200008F8888888700000203F202020110E009F
:104B3000C030080808083800071820202010080096
:104B400008F808080810E000203F202020100F007F
:104B500008F88888E8081000203F2020232018004B
:104B600008F88888E8081000203F200003000000B3
:104B7000C03008080838000007182020221E020054
:104B800008F808000008F808203F210101213F2013
:104B9000000808F8080800000020203F202000003E
:104BA00000000808F8080800C08080807F0000002E
:104BB00008F888C028180800203F20012638200067
:104BC00008F8080000000000203F202020203000CE
:104BD00008F8F800F8F80800203F003F003F2000E8
:104BE00008F830C00008F808203F200007183F00F0
:104BF000E01008080810E0000F10202020100F001F
:104C000008F808080808F000203F21010101000011
:104C1000E01008080810E0000F18242438504F0056
:104C200008F8888888887000203F2000030C302016
:104C300000708808080838000038202121221C0054
:104C4000180808F8080818000000203F200000009D
:104C500008F808000008F808001F202020201F0086
:104C60000878880000C83808000007380E010000E6
:104C7000F80800F80008F800033C0700073C0300B0
:104C8000081868808068180820302C03032C302016
:104C90000838C800C83808000000203F2000000085
:104CA00010080808C83808002038262120201800DD
:104CB000000000FE020202000000007F40404000B1
:104CC000000C30C000000000000000010638C000E9
:104CD00000020202FE000000004040407F00000091
:104CE00000000402020204000000000000000000B6
:104CF00000000000000000008080808080808080B4
:104D0000000202040000000000000000000000009B
:104D100000008080808000000019242222223F2091
:104D200008F8008080000000003F112020110E00D4
:104D30000000008080800000000E11202020110063
:104D4000000000808088F800000E112020103F2015
:104D50000000808080800000001F22222222130099
:104D6000008080F0888888180020203F20200000E4
:104D70000000808080808000006B94949493600099
:104D800008F8008080800000203F210000203F20A4
:104D900000809898000000000020203F20200000A4
:104DA000000000809898000000C08080807F000094
:104DB00008F8000080808000203F24022D30200071
:104DC000000808F8000000000020203F202000001C
:104DD0008080808080808000203F20003F20003F36
:104DE0008080008080800000203F210000203F2044
:104DF0000000808080800000001F202020201F00F5
:104E0000808000808000000080FFA12020110E0023
:104E10000000008080808000000E112020A0FF8014
:104E2000808080008080800020203F2120000100C1
:104E30000000808080808000003324242424190016
:104E4000008080E0808000000000001F2020000023
:104E50008080000000808000001F202020103F2064
:104E6000808080000080808000010E3008060100F4
:104E700080800080008080800F300C030C300F0099
:104E800000808000808080000020312E0E312000C4
:104E9000808080000080808080818E7018060100F4
:104EA00000808080808080000021302C2221300012
:104EB00000000000807C020200000000003F404033
:104EC00000000000FF00000000000000FF000000E4
:104ED0000002027C800000000040403F0000000013
:104EE00000060101020204040000000000000000AE
:104EF000104F000800000020540000006C01000862
:104F0000644F000854000020643B00008801000842
:104F100000000000000000000300000000A24A049E
:104F20000000000000000000010203040607080959
:104F30000000000000000000000000000000000071
:104F40001122335555112233555500000000000041
:104F500055230008F9230008D40A0020D432002089
:044F6000000000004D
:04000005080001CD21
:00000001FF
